:100000000C942A000C9434000C9434000C943400AA
:100010000C9434000C9434000C9434000C94340090
:100020000C9434000C9434000C9434000C94340080
:100030000C9434000C9434000C9434000C94340070
:100040000C9434000C9434000C9434000C94340060
:100050000C94340011241FBECFE5D8E0DEBFCDBF25
:100060000E9436000C94C4010C9400000E943B00D6
:1000700080E090E0089541E065E080E00E94DC00CF
:1000800041E065E081E00E94DC0041E065E083E062
:100090000E94DC0040E065E080E00E94500140E00A
:1000A00065E081E00E94500140E065E083E00E944D
:1000B00050010E94A80080E090E00E94BD00C0E0D6
:1000C00043C08C2F90E00E94BD002FEF85EA9EE098
:1000D000215080409040E1F700C00000C33081F41F
:1000E00041E065E080E00E94500140E065E081E091
:1000F0000E94500140E065E083E00E94500123C06F
:10010000C63081F440E065E080E00E94500141E0AB
:1001100065E081E00E94500140E065E083E00E94DC
:10012000500111C0C93079F440E065E080E00E94E0
:10013000500140E065E081E00E94500141E065E04F
:1001400083E00E945001CF5FCA3008F4BACFB7CF26
:1001500041E060E082E00E94DC0041E061E082E09A
:100160000E94DC0041E062E082E00E94DC0041E0AD
:1001700063E082E00E94DC000895CF93C82F482FEF
:10018000417060E082E00E945001C1FB442740F9C9
:1001900061E082E00E945001C2FB442740F962E026
:1001A00082E00E945001C3FB442740F963E082E0F3
:1001B0000E945001CF910895683008F070C08430DB
:1001C00008F06DC04130A1F5813089F028F082300F
:1001D000C9F0833011F108952AB381E090E002C0A4
:1001E000880F991F6A95E2F7822B8ABB089527B37F
:1001F00081E090E002C0880F991F6A95E2F7822B98
:1002000087BB089524B381E090E002C0880F991F56
:100210006A95E2F7822B84BB089521B381E090E0D8
:1002200002C0880F991F6A95E2F7822B81BB08955F
:10023000813091F028F08230D9F0833029F108958F
:100240002AB381E090E002C0880F991F6A95E2F717
:10025000809582238ABB089527B381E090E002C095
:10026000880F991F6A95E2F78095822387BB0895CE
:1002700024B381E090E002C0880F991F6A95E2F7ED
:100280008095822384BB089521B381E090E002C071
:10029000880F991F6A95E2F78095822381BB0895A4
:1002A000683008F070C0843008F06DC04130A1F5AE
:1002B000813089F028F08230C9F0833011F108953F
:1002C0002BB381E090E002C0880F991F6A95E2F796
:1002D000822B8BBB089528B381E090E002C0880F89
:1002E000991F6A95E2F7822B88BB089525B381E0B8
:1002F00090E002C0880F991F6A95E2F7822B85BBB8
:10030000089522B381E090E002C0880F991F6A959A
:10031000E2F7822B82BB0895813091F028F0823081
:10032000D9F0833029F108952BB381E090E002C029
:10033000880F991F6A95E2F7809582238BBB0895F9
:1003400028B381E090E002C0880F991F6A95E2F718
:100350008095822388BB089525B381E090E002C098
:10036000880F991F6A95E2F78095822385BB0895CF
:1003700022B381E090E002C0880F991F6A95E2F7EE
:0C0380008095822382BB0895F894FFCF83
:00000001FF
